:020000040800F2
:100000000000022085130008F1120008F312000816
:10001000F5120008F7120008F912000800000000AD
:10002000000000000000000000000000FB120008BB
:10003000FD12000800000000FF1200080113000874
:10004000D5130008D5130008D5130008D5130008F0
:10005000D5130008D5130008D5130008D5130008E0
:10006000D5130008D5130008D5130008D5130008D0
:10007000D5130008D5130008D5130008D5130008C0
:10008000D5130008D5130008D5130008D5130008B0
:10009000D5130008D5130008D5130008D5130008A0
:1000A000D5130008D5130008D5130008D513000890
:1000B000D5130008D5130008D5130008D513000880
:1000C000D5130008D5130008D5130008D513000870
:1000D000D5130008D5130008D5130008D513000860
:1000E000D5130008D513000800000000D513000840
:1000F000D5130008D5130008D5130008D513000840
:10010000D5130008D5130008D5130008D51300082F
:10011000D5130008D5130008D5130008D51300081F
:10012000D5130008D5130008D5130008D51300080F
:10013000D5130008D5130008D5130008D5130008FF
:1001400000000000000000000000000000000000AF
:10015000D5130008D5130008D5130008D5130008DF
:10016000D5130008D5130008D5130008D5130008CF
:10017000D5130008D5130008D513000800000000AF
:10018000D5130008D5130008D5130008D5130008AF
:10019000D5130008D5130008D5130008D51300089F
:1001A000D5130008D5130008D5130008D51300088F
:1001B000D5130008D5130008D5130008D51300087F
:1001C000D5130008D5130008D5130008D51300086F
:1001D000D5130008D5130008D5130008D51300085F
:1001E000D5130008D5130008D5130008D51300084F
:1001F000D5130008D5130008D5130008D51300083F
:10020000D5130008D5130008D5130008D51300082E
:10021000D5130008D5130008D5130008D51300081E
:10022000D5130008D5130008D513000800000000FE
:10023000D5130008D513000800000000D5130008EE
:10024000D5130008D5130008D5130008D5130008EE
:10025000D5130008D5130008D5130008D5130008DE
:10026000D5130008D5130008D5130008D5130008CE
:10027000D5130008D5130008D513000800000000AE
:10028000D5130008D5130008D5130008000000009E
:0802900000000000D513000876
:1002980010B5054C237833B9044B13B10448AFF3B8
:1002A80000800123237010BD100000200000000012
:1002B8003014000808B5034B1BB103490348AFF3DA
:1002C800008008BD00000000140000203014000861
:1002D800104B1B780BB90120704710B504464FF43A
:1002E8007A70B0FBF3F30C4A1068B0FBF3F000F03F
:1002F800B3F868B90F2C01D901200AE00022214681
:100308004FF0FF3000F076F8024B5C60002000E010
:10031800012010BD000000200C00002010B50320B3
:1003280000F056F800F0C6FC0F498B69C3F30323AD
:100338000E4AD35C03F01F03D8408B6903F00F0308
:10034800D35C03F01F0320FA03F3094A1360094B37
:1003580018600020FFF7BCFF10B10124204610BD33
:10036800044600F0AFFFF9E70044025848140008BB
:10037800080000200C000020034B1B78034A11687A
:100388000B441360704700BF000000202C000020C1
:10039800014B1868704700BF2C00002038B5044690
:1003A800FFF7F6FF0546B4F1FF3F02D0044B1B7878
:1003B8001C44FFF7EDFF401BA042FAD338BD00BF35
:1003C80000000020014B1868000C70470010005C0A
:1003D8000649CB6823F4E0631B041B0C000200F4FD
:1003E800E0600343024A1A43CA60704700ED00E028
:1003F8000000FA0530B4154BDB68C3F30223C3F1E0
:100408000704042C28BF04241D1D062D14D9033B02
:100418004FF0FF3505FA04F421EA0401994005FA82
:1004280003F322EA03031943002807DB0901C9B2D1
:10043800074B195430BC70470023E9E700F00F0060
:100448000901C9B2034B1954F4E700BF00ED00E0FD
:1004580000E400E014ED00E00138B0F1807F0AD23A
:10046800064B5860064AF02182F823100020986055
:1004780007221A6070470120704700BF10E000E0B3
:1004880000ED00E0F0B583B000233AE0092400E075
:100498000024B4403C4302356E4E46F825406E4C6D
:1004A8002568D44304EA05064F6817F4803F01D055
:1004B80042EA0506684D2E606E6804EA06054F6834
:1004C80017F4003F01D042EA0605634E75604FF00D
:1004D800B0452D6804EA05064F6817F4801F01D05F
:1004E80042EA05064FF0B0452E606D682C404E6814
:1004F80016F4001F01D042EA05044FF0B0425460E0
:1005080001330A6832FA03F400F0A28001249C4007
:100518002240F5D04D686E1E112D18BF012E01D94D
:10052800122D12D186685F000325BD4026EA050614
:10053800CD68BD4035438560466826EA04064D68A7
:10054800C5F300149C4034434460C6685F0003252B
:10055800BD40EC4326408D68BD403543C5604D68BD
:10056800122D18BF022D13D1DE08083650F826E0E8
:1005780003F007054FEA850C0F2505FA0CF52EEA5E
:10058800050E0D6905FA0CF545EA0E0540F82650EA
:10059800056825404C6804F00304BC402C43046003
:1005A8004C6814F0805FABD02C4CD4F8F45045F074
:1005B8000205C4F8F450D4F8F44004F0020401949D
:1005C800019C9D08AE1C234C54F8267003F00304CC
:1005D800A6000F24B44027EA0407214CA0423FF4A8
:1005E80057AF04F58064A04222D004F58064A0428D
:1005F80020D004F58064A0421ED004F58064A04297
:100608001CD004F58064A0421AD004F58064A0428E
:1006180018D004F58064A04216D004F58064A04286
:1006280014D004F58064A0423FF430AF0A2430E7C8
:1006380001242EE702242CE703242AE7042428E7D0
:10064800052426E7062424E7072422E7082420E7D0
:1006580003B0F0BD00040058800000580044025860
:100668000000025812B9090481617047816170471E
:10067800134BDB6813F0040F07D1114BDB6803F051
:10068800070383421AD00120704710B50C4AD3687B
:1006980023F007031843D060FFF77AFE0446084B9F
:1006A8005B6813F4005F07D1FFF772FE001BB0F51B
:1006B8007A7FF4D9012000E0002010BD00207047A7
:1006C80000480258002800F0E68238B5044603685E
:1006D80013F0010F25D0AA4A136903F03803926A70
:1006E800102B15D0182B0FD06368B3F5803F3ED080
:1006F800002B52D1A24B1A6822F480321A601A6871
:1007080022F480221A6037E002F00302022AEBD1B9
:100718009B4B1B6813F4003F03D06368002B00F069
:10072800BC82236813F0020F77D0954A1369926A46
:1007380013F038035AD0182B55D0E368002B00F07B
:10074800B2808F490A6822F0190213430B60FFF741
:100758001FFE05468A4B1B6813F0040F40F08B8080
:10076800FFF716FE401B0228F4D903209AE2844AB8
:10077800136843F48033136063682BB3FFF708FEF4
:1007880005467F4B1B6813F4003FCAD1FFF700FEF4
:10079800401B6428F5D9032084E2B3F5A02F09D0C3
:1007A800774B1A6822F480321A601A6822F4802281
:1007B8001A60E1E7724B1A6842F480221A601A68DC
:1007C80042F480321A60D7E7FFF7E2FD05466C4B2A
:1007D8001B6813F4003FA4D0FFF7DAFD401B642820
:1007E800F5D903205EE212F0030FA6D1644B1B6813
:1007F80013F0040F03D0E368002B00F05082FFF7DA
:10080800E1FD41F2030398422CD85D4A536823F472
:100818007C33216943EA01335360236813F0100FD6
:1008280071D0574A136903F03803926A082B52D0E3
:10083800182B4CD0E369002B00F0A480504A1368B1
:1008480043F080031360FFF7A3FD05464C4B1B687C
:1008580013F4807F7BD1FFF79BFD401B0228F5D95D
:1008680003201FE2464A536823F0FE43216943EA06
:1008780001635360D1E7FFF7A5FD41F203039842F6
:1008880008D83F4A536823F47C33216943EA01338B
:100898005360C2E73A4A536823F0FE43216943EAAA
:1008A80001635360B9E7364A136823F00103136004
:1008B800FFF76EFD0546324B1B6813F0040FACD0F2
:1008C800FFF766FD401B0228F5D90320EAE102F094
:1008D8000302012AAED12A4B1B6813F4807F04D08F
:1008E800E369802B01D00120DCE1FFF76BFD41F2C9
:1008F8000303984222D8224A536823F0F843216A16
:1009080043EA81635360236813F0080F62D0636978
:10091800002B4BD01A4A536F43F001035367FFF77C
:1009280037FD0546164B5B6F13F0020F52D1FFF7E8
:100938002FFD401B0228F5D90320B3E1104AD368E4
:1009480023F07C53216A43EA0163D360DBE7FFF7B6
:1009580039FD41F20303984208D8094A536823F045
:10096800F843216A43EA81635360CCE7044AD368B9
:1009780023F07C53216A43EA0163D360C3E700BFD5
:1009880000440258AD4A136823F080031360FFF750
:10099800FFFC0546A94B1B6813F4807FB3D0FFF713
:1009A800F7FC401B0228F5D903207BE1A34A536FCB
:1009B80023F001035367FFF7EBFC05469F4B5B6F82
:1009C80013F0020F06D0FFF7E3FC401B0228F5D90D
:1009D800032067E1236813F0200F29D0A3699BB196
:1009E800964A136843F480531360FFF7D1FC054619
:1009F800924B1B6813F4005F1AD1FFF7C9FC401B28
:100A08000228F5D903204DE18C4A136823F480535A
:100A18001360FFF7BDFC0546884B1B6813F4005FA5
:100A280006D0FFF7B5FC401B0228F5D9032039E1B1
:100A3800236813F0040F21D1636A002B00F0318181
:100A48007E4A126902F03802182A00F0EA80022B66
:100A580075D07A4A136823F080731360FFF798FC07
:100A68000446764B1B6813F0007F00F0D880FFF730
:100A78008FFC001B0228F4D9032013E1704A136885
:100A880043F480731360FFF783FC05466C4B1B68C7
:100A980013F4807F06D1FFF77BFC401B6428F5D94F
:100AA8000320FFE0A368012B0AD00BBB634B1A6F2E
:100AB80022F001021A671A6F22F004021A6704E092
:100AC8005E4A136F43F001031367A36833B3FFF75C
:100AD8005FFC0546594B1B6F13F0020FACD1FFF7B3
:100AE80057FC401B41F288339842F3D90320D9E0E0
:100AF800052B09D0514B1A6F22F001021A671A6FA1
:100B080022F004021A67E0E74C4B1A6F42F0040225
:100B18001A671A6F42F001021A67D6E7FFF738FC26
:100B28000546464B1B6F13F0020F85D0FFF730FCCC
:100B3800401B41F288339842F3D90320B2E03F4A80
:100B4800136823F080731360FFF722FC05463B4BC4
:100B58001B6813F0007F06D0FFF71AFC401B022821
:100B6800F5D903209EE0354B996A364A0A40A16AB6
:100B7800E06A41EA00110A439A62226B013AC2F321
:100B88000802616B0139490289B20A43A16B013934
:100B9800090401F4FE010A43E16B0139090601F079
:100BA800FE410A431A63DA6A22F00102DA62596BDB
:100BB800254A0A40A16C42EAC1025A63DA6A22F065
:100BC8000C02216C0A43DA62DA6A22F00202616CD2
:100BD8000A43DA62DA6A42F48032DA62DA6A42F4A2
:100BE8000032DA62DA6A42F48022DA62DA6A42F0C1
:100BF8000102DA621A6842F080721A60FFF7C8FBD5
:100C080004460E4B1B6813F0007F06D1FFF7C0FBAC
:100C1800001B0228F5D9032044E0002042E0002010
:100C280040E0064A916A106B012B3CD001F00303A7
:100C3800A26A93420AD0012034E000BF004402585F
:100C4800004802580CFCFFFF0700FFFFC1F3051125
:100C5800E36A994201D0012024E0C0F30802236B23
:100C6800013B9A4201D001201CE0C0F34622636B8D
:100C7800013B9A4201D0012014E0C0F30642A36B65
:100C8800013B9A4211D1C0F30660E36B013B9842E5
:100C98000DD0012006E001207047012002E001206C
:100CA80000E0002038BD0120FCE70120FAE7002021
:100CB800F8E700BF724B1B6903F03803102B00F0F4
:100CC800DB80182B10D00BB16E4870476C4B1B683B
:100CD80013F0200F00F0D280694B1868C0F3C100F0
:100CE800694B23FA00F07047654A916A01F00301E5
:100CF800906AC0F30510D36A03F00103526BC2F384
:100D0800CC0203FB02F307EE903AF8EE677A00286C
:100D180000F0B580012966D0F9B1022900F08F8072
:100D280007EE100AF8EE476A9FED586A86EE267AB3
:100D3800534B1B6BC3F3080306EE903AF8EE666A52
:100D48009FED536A67EE867A76EEA77AF7EE006A29
:100D580077EEA67A27EE277A61E0494B1B6813F0F5
:100D6800200F23D046490A68C2F3C102464BD3403C
:100D780007EE103AF8EE476A07EE100AB8EE476A2F
:100D880086EE867A0B6BC3F3080306EE903AF8EE0C
:100D9800666A9FED3F6A67EE867A76EEA77AF7EE87
:100DA800006A77EEA67A27EE277A38E007EE100A6F
:100DB800F8EE476A9FED376A86EE267A304B1B6B52
:100DC800C3F3080306EE903AF8EE666A9FED306AC0
:100DD80067EE867A76EEA77AF7EE006A77EEA67A5D
:100DE80027EE277A1BE007EE100AF8EE476A9FED18
:100DF800276A86EE267A224B1B6BC3F3080306EE9E
:100E0800903AF8EE666A9FED226A67EE867A76EE89
:100E1800A77AF7EE006A77EEA67A27EE277A184BBC
:100E28001B6BC3F34623013307EE903AF8EE677A5B
:100E3800C7EE276AFCEEE67A17EE900A704707EECF
:100E4800100AF8EE476A9FED146A86EE267A0C4B74
:100E58001B6BC3F3080306EE903AF8EE666A9FED43
:100E68000C6A67EE867A76EEA77AF7EE006A77EE76
:100E7800A67A27EE277AD2E70848704702487047D3
:100E88000044025800093D000090D0030024744A31
:100E9800000000390024744C20BCBE4B40787D0112
:100EA800002800F0368103469C4A126802F00F02BF
:100EB8008A420CD29948026822F00F020A43026063
:100EC800026802F00F028A4201D00120704770B513
:100ED8001A6812F0040F0CD01869914A926902F04E
:100EE8007002904205D98E4CA26922F0700210431C
:100EF800A0611A6812F0080F0CD05869884AD269A4
:100F080002F07002904205D9854CE26922F0700225
:100F18001043E0611A6812F0100F0CD09869804AEB
:100F2800D26902F4E062904205D97D4CE26922F46C
:100F3800E0621043E0611A6812F0200F0CD0D86903
:100F4800774A126A02F07002904205D9744C226AFC
:100F580022F07002104320621A6812F0020F0CD0BF
:100F6800D8686F4A926902F00F02904205D96C4C1A
:100F7800A26922F00F021043A0611C460D461B68AF
:100F880013F0010F41D0664A936923F47063A16896
:100F98000B4393616368022B0AD0032B27D0012BE4
:100FA8002CD05F4A126812F0040F06D10120AFE07E
:100FB800126812F4003F00F0AE8059490A6922F025
:100FC800070213430B61FFF7E3F90646544B1B690D
:100FD80003F038036268B3EBC20F16D0FFF7D8F9F5
:100FE800801B41F288339842F0D9032090E04C4AA4
:100FF800126812F0007FE0D1012089E0484A1268A7
:1010080012F4807FD9D1012082E0236813F0020F07
:101018000CD0E268424B9B6903F00F039A4205D259
:101028003F498B6923F00F031A438A613B4B1B68C6
:1010380003F00F03AB420CD9384A136823F00F03AF
:101048002B431360136803F00F03AB4201D0012058
:101058005EE0236813F0040F0CD02269304B9B69C3
:1010680003F070039A4205D22D498B6923F070036F
:101078001A438A61236813F0080F0CD06269284B61
:10108800DB6903F070039A4205D22549CB6923F046
:1010980070031A43CA61236813F0100F0CD0A269B9
:1010A8001F4BDB6903F4E0639A4205D21C49CB6904
:1010B80023F4E0631A43CA61236813F0200F0CD0AD
:1010C800E269174B1B6A03F070039A4205D2144970
:1010D8000B6A23F070031A430A62FFF7EBFD10490D
:1010E8008B69C3F303230F4AD35C03F01F03D84073
:1010F8008B6903F00F03D35C03F01F0320FA03F39B
:10110800094A1360094B1860094B1868FFF7E0F8A3
:1011180070BD012070470120FAE700BF002000528F
:101128000044025848140008080000200C00002061
:101138000400002030B58BB0002405940694079471
:1011480008940994294BD3F8E02042F01002C3F820
:10115800E020D3F8E02002F010020192019AD3F8BF
:10116800E02042F00402C3F8E020D3F8E02002F0C7
:1011780004020292029AD3F8E02042F08002C3F8F7
:10118800E020D3F8E02002F080020392039AD3F81B
:10119800E02042F00202C3F8E020D3F8E03003F088
:1011A80002030493049B124D224601212846FFF7AF
:1011B80059FA082305930694079405A90D48FFF7E3
:1011C80061F94FF4005305930694079405A90A485A
:1011D800FFF758F90123059306930794089405A986
:1011E8002846FFF74FF90BB030BD00BF0044025846
:1011F80000040258001002580008025810B59CB0AC
:101208004C22002109A800F007F92022002101A89A
:1012180000F002F90220FFF72BFA002300931A4B83
:10122800DA6A22F00102DA62DB6A03F00103009352
:10123800164A936923F4404343F4804393619369C6
:1012480003F440430093009B104B9B6913F4005F29
:10125800FAD00223099301230C9340230D93002411
:10126800129409A8FFF72EFA3F23019302940394DE
:1012780004940594069407940894214601A8FFF75E
:101288000FFE1CB010BD00BF0004005800480258F3
:1012980008B5FFF743F8FFF7B1FFFFF74BFF084C1E
:1012A8004FF00101A1614FF47A70FFF777F8044C11
:1012B8004FF48031A1614FF47A70FFF76FF8EEE7D1
:1012C8000004025882B0074BD3F8F42042F002021F
:1012D800C3F8F420D3F8F43003F002030193019B20
:1012E80002B07047004402587047FEE7FEE7FEE789
:1012F800FEE770477047704708B5FFF73DF808BD2F
:10130800184AD2F8883043F47003C2F88830164B74
:101318001A6842F001021A6000221A61186813491B
:10132800014019609A61DA611A629A62DA621A6394
:101338005A639A63DA631A645A64196821F480213B
:1013480019601A660A4B1A680A4B1340B3F1005F1A
:1013580002D2094B01221A60024B4FF000629A60D8
:10136800704700BF00ED00E0004402587FEDF6EA48
:101378000010005C0000FFFF08810051DFF834D046
:10138800002103E00C4B5B58435004310B480C4BD5
:1013980042189A42F6D30B4A02E0002342F8043B73
:1013A800094B9A42F9D3FFF7ABFF00F011F8FFF7AA
:1013B8006FFF704700000220601400080000002042
:1013C800100000201000002030000020FEE7000080
:1013D80070B50D4E0D4CA41BA4100025A54209D1D3
:1013E8000B4E0C4C00F020F8A41BA4100025A542BD
:1013F80005D170BD56F8253098470135EEE756F807
:10140800253098470135F2E75814000858140008A9
:10141800581400085C14000802440346934200D1A3
:10142800704703F8011BF9E7F8B500BFF8BC08BC22
:101438009E467047F8B500BFF8BC08BC9E4670478A
:101448000000000001020304010203040607080962
:04145800BD020008C9
:04145C0099020008E9
:1014600001000000100000000090D0030090D003A5
:040000050800138557
:00000001FF
